{
  "_format": "hh-sol-artifact-1",
  "contractName": "Chimchar",
  "sourceName": "contracts/Chimchar.sol",
  "abi": [
    {
      "inputs": [],
      "stateMutability": "nonpayable",
      "type": "constructor"
    },
    {
      "inputs": [],
      "name": "ERC721EnumerableForbiddenBatchMint",
      "type": "error"
    },
    {
      "inputs": [
        {
          "internalType": "address",
          "name": "sender",
          "type": "address"
        },
        {
          "internalType": "uint256",
          "name": "tokenId",
          "type": "uint256"
        },
        {
          "internalType": "address",
          "name": "owner",
          "type": "address"
        }
      ],
      "name": "ERC721IncorrectOwner",
      "type": "error"
    },
    {
      "inputs": [
        {
          "internalType": "address",
          "name": "operator",
          "type": "address"
        },
        {
          "internalType": "uint256",
          "name": "tokenId",
          "type": "uint256"
        }
      ],
      "name": "ERC721InsufficientApproval",
      "type": "error"
    },
    {
      "inputs": [
        {
          "internalType": "address",
          "name": "approver",
          "type": "address"
        }
      ],
      "name": "ERC721InvalidApprover",
      "type": "error"
    },
    {
      "inputs": [
        {
          "internalType": "address",
          "name": "operator",
          "type": "address"
        }
      ],
      "name": "ERC721InvalidOperator",
      "type": "error"
    },
    {
      "inputs": [
        {
          "internalType": "address",
          "name": "owner",
          "type": "address"
        }
      ],
      "name": "ERC721InvalidOwner",
      "type": "error"
    },
    {
      "inputs": [
        {
          "internalType": "address",
          "name": "receiver",
          "type": "address"
        }
      ],
      "name": "ERC721InvalidReceiver",
      "type": "error"
    },
    {
      "inputs": [
        {
          "internalType": "address",
          "name": "sender",
          "type": "address"
        }
      ],
      "name": "ERC721InvalidSender",
      "type": "error"
    },
    {
      "inputs": [
        {
          "internalType": "uint256",
          "name": "tokenId",
          "type": "uint256"
        }
      ],
      "name": "ERC721NonexistentToken",
      "type": "error"
    },
    {
      "inputs": [
        {
          "internalType": "address",
          "name": "owner",
          "type": "address"
        },
        {
          "internalType": "uint256",
          "name": "index",
          "type": "uint256"
        }
      ],
      "name": "ERC721OutOfBoundsIndex",
      "type": "error"
    },
    {
      "inputs": [
        {
          "internalType": "address",
          "name": "owner",
          "type": "address"
        }
      ],
      "name": "OwnableInvalidOwner",
      "type": "error"
    },
    {
      "inputs": [
        {
          "internalType": "address",
          "name": "account",
          "type": "address"
        }
      ],
      "name": "OwnableUnauthorizedAccount",
      "type": "error"
    },
    {
      "anonymous": false,
      "inputs": [
        {
          "indexed": true,
          "internalType": "address",
          "name": "owner",
          "type": "address"
        },
        {
          "indexed": true,
          "internalType": "address",
          "name": "approved",
          "type": "address"
        },
        {
          "indexed": true,
          "internalType": "uint256",
          "name": "tokenId",
          "type": "uint256"
        }
      ],
      "name": "Approval",
      "type": "event"
    },
    {
      "anonymous": false,
      "inputs": [
        {
          "indexed": true,
          "internalType": "address",
          "name": "owner",
          "type": "address"
        },
        {
          "indexed": true,
          "internalType": "address",
          "name": "operator",
          "type": "address"
        },
        {
          "indexed": false,
          "internalType": "bool",
          "name": "approved",
          "type": "bool"
        }
      ],
      "name": "ApprovalForAll",
      "type": "event"
    },
    {
      "anonymous": false,
      "inputs": [
        {
          "indexed": true,
          "internalType": "address",
          "name": "previousOwner",
          "type": "address"
        },
        {
          "indexed": true,
          "internalType": "address",
          "name": "newOwner",
          "type": "address"
        }
      ],
      "name": "OwnershipTransferred",
      "type": "event"
    },
    {
      "anonymous": false,
      "inputs": [
        {
          "indexed": true,
          "internalType": "address",
          "name": "from",
          "type": "address"
        },
        {
          "indexed": true,
          "internalType": "address",
          "name": "to",
          "type": "address"
        },
        {
          "indexed": true,
          "internalType": "uint256",
          "name": "tokenId",
          "type": "uint256"
        }
      ],
      "name": "Transfer",
      "type": "event"
    },
    {
      "inputs": [],
      "name": "MAX_SUPPLY",
      "outputs": [
        {
          "internalType": "uint256",
          "name": "",
          "type": "uint256"
        }
      ],
      "stateMutability": "view",
      "type": "function"
    },
    {
      "inputs": [],
      "name": "MINT_PRICE",
      "outputs": [
        {
          "internalType": "uint256",
          "name": "",
          "type": "uint256"
        }
      ],
      "stateMutability": "view",
      "type": "function"
    },
    {
      "inputs": [
        {
          "internalType": "address",
          "name": "to",
          "type": "address"
        },
        {
          "internalType": "uint256",
          "name": "tokenId",
          "type": "uint256"
        }
      ],
      "name": "approve",
      "outputs": [],
      "stateMutability": "nonpayable",
      "type": "function"
    },
    {
      "inputs": [
        {
          "internalType": "address",
          "name": "owner",
          "type": "address"
        }
      ],
      "name": "balanceOf",
      "outputs": [
        {
          "internalType": "uint256",
          "name": "",
          "type": "uint256"
        }
      ],
      "stateMutability": "view",
      "type": "function"
    },
    {
      "inputs": [],
      "name": "baseURI",
      "outputs": [
        {
          "internalType": "string",
          "name": "",
          "type": "string"
        }
      ],
      "stateMutability": "view",
      "type": "function"
    },
    {
      "inputs": [],
      "name": "closeMint",
      "outputs": [],
      "stateMutability": "nonpayable",
      "type": "function"
    },
    {
      "inputs": [
        {
          "internalType": "uint256",
          "name": "tokenId",
          "type": "uint256"
        }
      ],
      "name": "getApproved",
      "outputs": [
        {
          "internalType": "address",
          "name": "",
          "type": "address"
        }
      ],
      "stateMutability": "view",
      "type": "function"
    },
    {
      "inputs": [
        {
          "internalType": "address",
          "name": "",
          "type": "address"
        }
      ],
      "name": "hasMinted",
      "outputs": [
        {
          "internalType": "bool",
          "name": "",
          "type": "bool"
        }
      ],
      "stateMutability": "view",
      "type": "function"
    },
    {
      "inputs": [
        {
          "internalType": "address",
          "name": "owner",
          "type": "address"
        },
        {
          "internalType": "address",
          "name": "operator",
          "type": "address"
        }
      ],
      "name": "isApprovedForAll",
      "outputs": [
        {
          "internalType": "bool",
          "name": "",
          "type": "bool"
        }
      ],
      "stateMutability": "view",
      "type": "function"
    },
    {
      "inputs": [],
      "name": "mint",
      "outputs": [],
      "stateMutability": "payable",
      "type": "function"
    },
    {
      "inputs": [],
      "name": "mintOpen",
      "outputs": [
        {
          "internalType": "bool",
          "name": "",
          "type": "bool"
        }
      ],
      "stateMutability": "view",
      "type": "function"
    },
    {
      "inputs": [],
      "name": "name",
      "outputs": [
        {
          "internalType": "string",
          "name": "",
          "type": "string"
        }
      ],
      "stateMutability": "view",
      "type": "function"
    },
    {
      "inputs": [],
      "name": "openMint",
      "outputs": [],
      "stateMutability": "nonpayable",
      "type": "function"
    },
    {
      "inputs": [],
      "name": "owner",
      "outputs": [
        {
          "internalType": "address",
          "name": "",
          "type": "address"
        }
      ],
      "stateMutability": "view",
      "type": "function"
    },
    {
      "inputs": [
        {
          "internalType": "uint256",
          "name": "tokenId",
          "type": "uint256"
        }
      ],
      "name": "ownerOf",
      "outputs": [
        {
          "internalType": "address",
          "name": "",
          "type": "address"
        }
      ],
      "stateMutability": "view",
      "type": "function"
    },
    {
      "inputs": [],
      "name": "renounceOwnership",
      "outputs": [],
      "stateMutability": "nonpayable",
      "type": "function"
    },
    {
      "inputs": [],
      "name": "reveal",
      "outputs": [],
      "stateMutability": "nonpayable",
      "type": "function"
    },
    {
      "inputs": [],
      "name": "revealed",
      "outputs": [
        {
          "internalType": "bool",
          "name": "",
          "type": "bool"
        }
      ],
      "stateMutability": "view",
      "type": "function"
    },
    {
      "inputs": [
        {
          "internalType": "address",
          "name": "from",
          "type": "address"
        },
        {
          "internalType": "address",
          "name": "to",
          "type": "address"
        },
        {
          "internalType": "uint256",
          "name": "tokenId",
          "type": "uint256"
        }
      ],
      "name": "safeTransferFrom",
      "outputs": [],
      "stateMutability": "nonpayable",
      "type": "function"
    },
    {
      "inputs": [
        {
          "internalType": "address",
          "name": "from",
          "type": "address"
        },
        {
          "internalType": "address",
          "name": "to",
          "type": "address"
        },
        {
          "internalType": "uint256",
          "name": "tokenId",
          "type": "uint256"
        },
        {
          "internalType": "bytes",
          "name": "data",
          "type": "bytes"
        }
      ],
      "name": "safeTransferFrom",
      "outputs": [],
      "stateMutability": "nonpayable",
      "type": "function"
    },
    {
      "inputs": [
        {
          "internalType": "address",
          "name": "operator",
          "type": "address"
        },
        {
          "internalType": "bool",
          "name": "approved",
          "type": "bool"
        }
      ],
      "name": "setApprovalForAll",
      "outputs": [],
      "stateMutability": "nonpayable",
      "type": "function"
    },
    {
      "inputs": [
        {
          "internalType": "string",
          "name": "_uri",
          "type": "string"
        }
      ],
      "name": "setBaseURI",
      "outputs": [],
      "stateMutability": "nonpayable",
      "type": "function"
    },
    {
      "inputs": [],
      "name": "shinyTokenId",
      "outputs": [
        {
          "internalType": "uint256",
          "name": "",
          "type": "uint256"
        }
      ],
      "stateMutability": "view",
      "type": "function"
    },
    {
      "inputs": [
        {
          "internalType": "bytes4",
          "name": "interfaceId",
          "type": "bytes4"
        }
      ],
      "name": "supportsInterface",
      "outputs": [
        {
          "internalType": "bool",
          "name": "",
          "type": "bool"
        }
      ],
      "stateMutability": "view",
      "type": "function"
    },
    {
      "inputs": [],
      "name": "symbol",
      "outputs": [
        {
          "internalType": "string",
          "name": "",
          "type": "string"
        }
      ],
      "stateMutability": "view",
      "type": "function"
    },
    {
      "inputs": [
        {
          "internalType": "uint256",
          "name": "index",
          "type": "uint256"
        }
      ],
      "name": "tokenByIndex",
      "outputs": [
        {
          "internalType": "uint256",
          "name": "",
          "type": "uint256"
        }
      ],
      "stateMutability": "view",
      "type": "function"
    },
    {
      "inputs": [
        {
          "internalType": "address",
          "name": "owner",
          "type": "address"
        },
        {
          "internalType": "uint256",
          "name": "index",
          "type": "uint256"
        }
      ],
      "name": "tokenOfOwnerByIndex",
      "outputs": [
        {
          "internalType": "uint256",
          "name": "",
          "type": "uint256"
        }
      ],
      "stateMutability": "view",
      "type": "function"
    },
    {
      "inputs": [
        {
          "internalType": "uint256",
          "name": "tokenId",
          "type": "uint256"
        }
      ],
      "name": "tokenURI",
      "outputs": [
        {
          "internalType": "string",
          "name": "",
          "type": "string"
        }
      ],
      "stateMutability": "view",
      "type": "function"
    },
    {
      "inputs": [],
      "name": "totalSupply",
      "outputs": [
        {
          "internalType": "uint256",
          "name": "",
          "type": "uint256"
        }
      ],
      "stateMutability": "view",
      "type": "function"
    },
    {
      "inputs": [
        {
          "internalType": "address",
          "name": "from",
          "type": "address"
        },
        {
          "internalType": "address",
          "name": "to",
          "type": "address"
        },
        {
          "internalType": "uint256",
          "name": "tokenId",
          "type": "uint256"
        }
      ],
      "name": "transferFrom",
      "outputs": [],
      "stateMutability": "nonpayable",
      "type": "function"
    },
    {
      "inputs": [
        {
          "internalType": "address",
          "name": "newOwner",
          "type": "address"
        }
      ],
      "name": "transferOwnership",
      "outputs": [],
      "stateMutability": "nonpayable",
      "type": "function"
    },
    {
      "inputs": [],
      "name": "withdraw",
      "outputs": [],
      "stateMutability": "nonpayable",
      "type": "function"
    }
  ],
  "bytecode": "0x60806040526000600c60006101000a81548160ff0219169083151502179055506000600c60016101000a81548160ff0219169083151502179055503480156200004757600080fd5b50336040518060400160405280600881526020017f4368696d636861720000000000000000000000000000000000000000000000008152506040518060400160405280600381526020017f4d4d4600000000000000000000000000000000000000000000000000000000008152508160009081620000c69190620004a8565b508060019081620000d89190620004a8565b505050600073ffffffffffffffffffffffffffffffffffffffff168173ffffffffffffffffffffffffffffffffffffffff1603620001505760006040517f1e4fbdf7000000000000000000000000000000000000000000000000000000008152600401620001479190620005d4565b60405180910390fd5b62000161816200016860201b60201c565b50620005f1565b6000600a60009054906101000a900473ffffffffffffffffffffffffffffffffffffffff16905081600a60006101000a81548173ffffffffffffffffffffffffffffffffffffffff021916908373ffffffffffffffffffffffffffffffffffffffff1602179055508173ffffffffffffffffffffffffffffffffffffffff168173ffffffffffffffffffffffffffffffffffffffff167f8be0079c531659141344cd1fd0a4f28419497f9722a3daafe3b4186f6b6457e060405160405180910390a35050565b600081519050919050565b7f4e487b7100000000000000000000000000000000000000000000000000000000600052604160045260246000fd5b7f4e487b7100000000000000000000000000000000000000000000000000000000600052602260045260246000fd5b60006002820490506001821680620002b057607f821691505b602082108103620002c657620002c562000268565b5b50919050565b60008190508160005260206000209050919050565b60006020601f8301049050919050565b600082821b905092915050565b600060088302620003307fffffffffffffffffffffffffffffffffffffffffffffffffffffffffffffffff82620002f1565b6200033c8683620002f1565b95508019841693508086168417925050509392505050565b6000819050919050565b6000819050919050565b600062000389620003836200037d8462000354565b6200035e565b62000354565b9050919050565b6000819050919050565b620003a58362000368565b620003bd620003b48262000390565b848454620002fe565b825550505050565b600090565b620003d4620003c5565b620003e18184846200039a565b505050565b5b818110156200040957620003fd600082620003ca565b600181019050620003e7565b5050565b601f82111562000458576200042281620002cc565b6200042d84620002e1565b810160208510156200043d578190505b620004556200044c85620002e1565b830182620003e6565b50505b505050565b600082821c905092915050565b60006200047d600019846008026200045d565b1980831691505092915050565b60006200049883836200046a565b9150826002028217905092915050565b620004b3826200022e565b67ffffffffffffffff811115620004cf57620004ce62000239565b5b620004db825462000297565b620004e88282856200040d565b600060209050601f8311600181146200052057600084156200050b578287015190505b6200051785826200048a565b86555062000587565b601f1984166200053086620002cc565b60005b828110156200055a5784890151825560018201915060208501945060208101905062000533565b868310156200057a578489015162000576601f8916826200046a565b8355505b6001600288020188555050505b505050505050565b600073ffffffffffffffffffffffffffffffffffffffff82169050919050565b6000620005bc826200058f565b9050919050565b620005ce81620005af565b82525050565b6000602082019050620005eb6000830184620005c3565b92915050565b61373780620006016000396000f3fe6080604052600436106101e35760003560e01c80636352211e11610102578063a22cb46511610095578063c002d23d11610064578063c002d23d14610689578063c87b56dd146106b4578063e985e9c5146106f1578063f2fde38b1461072e576101e3565b8063a22cb46514610609578063a475b5dd14610632578063b88d4fde14610649578063bce6d67214610672576101e3565b8063715018a6116100d1578063715018a6146105715780638da5cb5b146105885780638e4af512146105b357806395d89b41146105de576101e3565b80636352211e146104b557806364f101f0146104f25780636c0360eb1461050957806370a0823114610534576101e3565b80632f745c591161017a57806342842e0e1161014957806342842e0e146103fb5780634f6ccce714610424578063518302271461046157806355f804b31461048c576101e3565b80632f745c591461033f57806332cb6b0c1461037c57806338e21cce146103a75780633ccfd60b146103e4576101e3565b80631249c58b116101b65780631249c58b146102b657806318160ddd146102c057806323b872dd146102eb57806324bbd04914610314576101e3565b806301ffc9a7146101e857806306fdde0314610225578063081812fc14610250578063095ea7b31461028d575b600080fd5b3480156101f457600080fd5b5061020f600480360381019061020a919061267d565b610757565b60405161021c91906126c5565b60405180910390f35b34801561023157600080fd5b5061023a6107d1565b6040516102479190612770565b60405180910390f35b34801561025c57600080fd5b50610277600480360381019061027291906127c8565b610863565b6040516102849190612836565b60405180910390f35b34801561029957600080fd5b506102b460048036038101906102af919061287d565b61087f565b005b6102be610895565b005b3480156102cc57600080fd5b506102d5610a75565b6040516102e291906128cc565b60405180910390f35b3480156102f757600080fd5b50610312600480360381019061030d91906128e7565b610a82565b005b34801561032057600080fd5b50610329610b84565b60405161033691906126c5565b60405180910390f35b34801561034b57600080fd5b506103666004803603810190610361919061287d565b610b97565b60405161037391906128cc565b60405180910390f35b34801561038857600080fd5b50610391610c40565b60405161039e91906128cc565b60405180910390f35b3480156103b357600080fd5b506103ce60048036038101906103c9919061293a565b610c45565b6040516103db91906126c5565b60405180910390f35b3480156103f057600080fd5b506103f9610c65565b005b34801561040757600080fd5b50610422600480360381019061041d91906128e7565b610cb6565b005b34801561043057600080fd5b5061044b600480360381019061044691906127c8565b610cd6565b60405161045891906128cc565b60405180910390f35b34801561046d57600080fd5b50610476610d4c565b60405161048391906126c5565b60405180910390f35b34801561049857600080fd5b506104b360048036038101906104ae9190612a9c565b610d5f565b005b3480156104c157600080fd5b506104dc60048036038101906104d791906127c8565b610d7a565b6040516104e99190612836565b60405180910390f35b3480156104fe57600080fd5b50610507610d8c565b005b34801561051557600080fd5b5061051e610db1565b60405161052b9190612770565b60405180910390f35b34801561054057600080fd5b5061055b6004803603810190610556919061293a565b610e3f565b60405161056891906128cc565b60405180910390f35b34801561057d57600080fd5b50610586610ef9565b005b34801561059457600080fd5b5061059d610f0d565b6040516105aa9190612836565b60405180910390f35b3480156105bf57600080fd5b506105c8610f37565b6040516105d591906128cc565b60405180910390f35b3480156105ea57600080fd5b506105f3610f3d565b6040516106009190612770565b60405180910390f35b34801561061557600080fd5b50610630600480360381019061062b9190612b11565b610fcf565b005b34801561063e57600080fd5b50610647610fe5565b005b34801561065557600080fd5b50610670600480360381019061066b9190612bf2565b6110e4565b005b34801561067e57600080fd5b50610687611109565b005b34801561069557600080fd5b5061069e61112e565b6040516106ab91906128cc565b60405180910390f35b3480156106c057600080fd5b506106db60048036038101906106d691906127c8565b611138565b6040516106e89190612770565b60405180910390f35b3480156106fd57600080fd5b5061071860048036038101906107139190612c75565b6111b5565b60405161072591906126c5565b60405180910390f35b34801561073a57600080fd5b506107556004803603810190610750919061293a565b611249565b005b60007f780e9d63000000000000000000000000000000000000000000000000000000007bffffffffffffffffffffffffffffffffffffffffffffffffffffffff1916827bffffffffffffffffffffffffffffffffffffffffffffffffffffffff191614806107ca57506107c9826112cf565b5b9050919050565b6060600080546107e090612ce4565b80601f016020809104026020016040519081016040528092919081815260200182805461080c90612ce4565b80156108595780601f1061082e57610100808354040283529160200191610859565b820191906000526020600020905b81548152906001019060200180831161083c57829003601f168201915b5050505050905090565b600061086e826113b1565b5061087882611439565b9050919050565b610891828261088c611476565b61147e565b5050565b600c60009054906101000a900460ff166108e4576040517f08c379a00000000000000000000000000000000000000000000000000000000081526004016108db90612d61565b60405180910390fd5b600a6108ee610a75565b1061092e576040517f08c379a000000000000000000000000000000000000000000000000000000000815260040161092590612dcd565b60405180910390fd5b600b60003373ffffffffffffffffffffffffffffffffffffffff1673ffffffffffffffffffffffffffffffffffffffff16815260200190815260200160002060009054906101000a900460ff16156109bb576040517f08c379a00000000000000000000000000000000000000000000000000000000081526004016109b290612e39565b60405180910390fd5b655af3107a4000341015610a04576040517f08c379a00000000000000000000000000000000000000000000000000000000081526004016109fb90612ea5565b60405180910390fd5b6000610a0e610a75565b90506001600b60003373ffffffffffffffffffffffffffffffffffffffff1673ffffffffffffffffffffffffffffffffffffffff16815260200190815260200160002060006101000a81548160ff021916908315150217905550610a723382611490565b50565b6000600880549050905090565b600073ffffffffffffffffffffffffffffffffffffffff168273ffffffffffffffffffffffffffffffffffffffff1603610af45760006040517f64a0ae92000000000000000000000000000000000000000000000000000000008152600401610aeb9190612836565b60405180910390fd5b6000610b088383610b03611476565b6114ae565b90508373ffffffffffffffffffffffffffffffffffffffff168173ffffffffffffffffffffffffffffffffffffffff1614610b7e578382826040517f64283d7b000000000000000000000000000000000000000000000000000000008152600401610b7593929190612ec5565b60405180910390fd5b50505050565b600c60009054906101000a900460ff1681565b6000610ba283610e3f565b8210610be75782826040517fa57d13dc000000000000000000000000000000000000000000000000000000008152600401610bde929190612efc565b60405180910390fd5b600660008473ffffffffffffffffffffffffffffffffffffffff1673ffffffffffffffffffffffffffffffffffffffff168152602001908152602001600020600083815260200190815260200160002054905092915050565b600a81565b600b6020528060005260406000206000915054906101000a900460ff1681565b610c6d6115cb565b3373ffffffffffffffffffffffffffffffffffffffff166108fc479081150290604051600060405180830381858888f19350505050158015610cb3573d6000803e3d6000fd5b50565b610cd1838383604051806020016040528060008152506110e4565b505050565b6000610ce0610a75565b8210610d26576000826040517fa57d13dc000000000000000000000000000000000000000000000000000000008152600401610d1d929190612efc565b60405180910390fd5b60088281548110610d3a57610d39612f25565b5b90600052602060002001549050919050565b600c60019054906101000a900460ff1681565b610d676115cb565b80600e9081610d769190613100565b5050565b6000610d85826113b1565b9050919050565b610d946115cb565b6000600c60006101000a81548160ff021916908315150217905550565b600e8054610dbe90612ce4565b80601f0160208091040260200160405190810160405280929190818152602001828054610dea90612ce4565b8015610e375780601f10610e0c57610100808354040283529160200191610e37565b820191906000526020600020905b815481529060010190602001808311610e1a57829003601f168201915b505050505081565b60008073ffffffffffffffffffffffffffffffffffffffff168273ffffffffffffffffffffffffffffffffffffffff1603610eb25760006040517f89c62b64000000000000000000000000000000000000000000000000000000008152600401610ea99190612836565b60405180910390fd5b600360008373ffffffffffffffffffffffffffffffffffffffff1673ffffffffffffffffffffffffffffffffffffffff168152602001908152602001600020549050919050565b610f016115cb565b610f0b6000611652565b565b6000600a60009054906101000a900473ffffffffffffffffffffffffffffffffffffffff16905090565b600d5481565b606060018054610f4c90612ce4565b80601f0160208091040260200160405190810160405280929190818152602001828054610f7890612ce4565b8015610fc55780601f10610f9a57610100808354040283529160200191610fc5565b820191906000526020600020905b815481529060010190602001808311610fa857829003601f168201915b5050505050905090565b610fe1610fda611476565b8383611718565b5050565b610fed6115cb565b600c60019054906101000a900460ff161561103d576040517f08c379a00000000000000000000000000000000000000000000000000000000081526004016110349061321e565b60405180910390fd5b600a611047610a75565b14611087576040517f08c379a000000000000000000000000000000000000000000000000000000000815260040161107e9061328a565b60405180910390fd5b600a42443360405160200161109e93929190613313565b6040516020818303038152906040528051906020012060001c6110c1919061337f565b600d819055506001600c60016101000a81548160ff021916908315150217905550565b6110ef848484610a82565b6111036110fa611476565b85858585611887565b50505050565b6111116115cb565b6001600c60006101000a81548160ff021916908315150217905550565b655af3107a400081565b6060600c60019054906101000a900460ff1661117657600e604051602001611160919061348a565b60405160208183030381529060405290506111b0565b600e61118d60018461118891906134db565b611a38565b60405160200161119e92919061358c565b60405160208183030381529060405290505b919050565b6000600560008473ffffffffffffffffffffffffffffffffffffffff1673ffffffffffffffffffffffffffffffffffffffff16815260200190815260200160002060008373ffffffffffffffffffffffffffffffffffffffff1673ffffffffffffffffffffffffffffffffffffffff16815260200190815260200160002060009054906101000a900460ff16905092915050565b6112516115cb565b600073ffffffffffffffffffffffffffffffffffffffff168173ffffffffffffffffffffffffffffffffffffffff16036112c35760006040517f1e4fbdf70000000000000000000000000000000000000000000000000000000081526004016112ba9190612836565b60405180910390fd5b6112cc81611652565b50565b60007f80ac58cd000000000000000000000000000000000000000000000000000000007bffffffffffffffffffffffffffffffffffffffffffffffffffffffff1916827bffffffffffffffffffffffffffffffffffffffffffffffffffffffff1916148061139a57507f5b5e139f000000000000000000000000000000000000000000000000000000007bffffffffffffffffffffffffffffffffffffffffffffffffffffffff1916827bffffffffffffffffffffffffffffffffffffffffffffffffffffffff1916145b806113aa57506113a982611b06565b5b9050919050565b6000806113bd83611b70565b9050600073ffffffffffffffffffffffffffffffffffffffff168173ffffffffffffffffffffffffffffffffffffffff160361143057826040517f7e27328900000000000000000000000000000000000000000000000000000000815260040161142791906128cc565b60405180910390fd5b80915050919050565b60006004600083815260200190815260200160002060009054906101000a900473ffffffffffffffffffffffffffffffffffffffff169050919050565b600033905090565b61148b8383836001611bad565b505050565b6114aa828260405180602001604052806000815250611d72565b5050565b6000806114bc858585611d96565b9050600073ffffffffffffffffffffffffffffffffffffffff168173ffffffffffffffffffffffffffffffffffffffff1603611500576114fb84611fb0565b61153f565b8473ffffffffffffffffffffffffffffffffffffffff168173ffffffffffffffffffffffffffffffffffffffff161461153e5761153d8185611ff9565b5b5b600073ffffffffffffffffffffffffffffffffffffffff168573ffffffffffffffffffffffffffffffffffffffff16036115815761157c846120e4565b6115c0565b8473ffffffffffffffffffffffffffffffffffffffff168173ffffffffffffffffffffffffffffffffffffffff16146115bf576115be85856121b5565b5b5b809150509392505050565b6115d3611476565b73ffffffffffffffffffffffffffffffffffffffff166115f1610f0d565b73ffffffffffffffffffffffffffffffffffffffff161461165057611614611476565b6040517f118cdaa70000000000000000000000000000000000000000000000000000000081526004016116479190612836565b60405180910390fd5b565b6000600a60009054906101000a900473ffffffffffffffffffffffffffffffffffffffff16905081600a60006101000a81548173ffffffffffffffffffffffffffffffffffffffff021916908373ffffffffffffffffffffffffffffffffffffffff1602179055508173ffffffffffffffffffffffffffffffffffffffff168173ffffffffffffffffffffffffffffffffffffffff167f8be0079c531659141344cd1fd0a4f28419497f9722a3daafe3b4186f6b6457e060405160405180910390a35050565b600073ffffffffffffffffffffffffffffffffffffffff168273ffffffffffffffffffffffffffffffffffffffff160361178957816040517f5b08ba180000000000000000000000000000000000000000000000000000000081526004016117809190612836565b60405180910390fd5b80600560008573ffffffffffffffffffffffffffffffffffffffff1673ffffffffffffffffffffffffffffffffffffffff16815260200190815260200160002060008473ffffffffffffffffffffffffffffffffffffffff1673ffffffffffffffffffffffffffffffffffffffff16815260200190815260200160002060006101000a81548160ff0219169083151502179055508173ffffffffffffffffffffffffffffffffffffffff168373ffffffffffffffffffffffffffffffffffffffff167f17307eab39ab6107e8899845ad3d59bd9653f200f220920489ca2b5937696c318360405161187a91906126c5565b60405180910390a3505050565b60008373ffffffffffffffffffffffffffffffffffffffff163b1115611a31578273ffffffffffffffffffffffffffffffffffffffff1663150b7a02868685856040518563ffffffff1660e01b81526004016118e69493929190613610565b6020604051808303816000875af192505050801561192257506040513d601f19601f8201168201806040525081019061191f9190613671565b60015b6119a6573d8060008114611952576040519150601f19603f3d011682016040523d82523d6000602084013e611957565b606091505b50600081510361199e57836040517f64a0ae920000000000000000000000000000000000000000000000000000000081526004016119959190612836565b60405180910390fd5b805160208201fd5b63150b7a0260e01b7bffffffffffffffffffffffffffffffffffffffffffffffffffffffff1916817bffffffffffffffffffffffffffffffffffffffffffffffffffffffff191614611a2f57836040517f64a0ae92000000000000000000000000000000000000000000000000000000008152600401611a269190612836565b60405180910390fd5b505b5050505050565b606060006001611a4784612240565b01905060008167ffffffffffffffff811115611a6657611a65612971565b5b6040519080825280601f01601f191660200182016040528015611a985781602001600182028036833780820191505090505b509050600082602083010190505b600115611afb578080600190039150507f3031323334353637383961626364656600000000000000000000000000000000600a86061a8153600a8581611aef57611aee613350565b5b04945060008503611aa6575b819350505050919050565b60007f01ffc9a7000000000000000000000000000000000000000000000000000000007bffffffffffffffffffffffffffffffffffffffffffffffffffffffff1916827bffffffffffffffffffffffffffffffffffffffffffffffffffffffff1916149050919050565b60006002600083815260200190815260200160002060009054906101000a900473ffffffffffffffffffffffffffffffffffffffff169050919050565b8080611be65750600073ffffffffffffffffffffffffffffffffffffffff168273ffffffffffffffffffffffffffffffffffffffff1614155b15611d1a576000611bf6846113b1565b9050600073ffffffffffffffffffffffffffffffffffffffff168373ffffffffffffffffffffffffffffffffffffffff1614158015611c6157508273ffffffffffffffffffffffffffffffffffffffff168173ffffffffffffffffffffffffffffffffffffffff1614155b8015611c745750611c7281846111b5565b155b15611cb657826040517fa9fbf51f000000000000000000000000000000000000000000000000000000008152600401611cad9190612836565b60405180910390fd5b8115611d1857838573ffffffffffffffffffffffffffffffffffffffff168273ffffffffffffffffffffffffffffffffffffffff167f8c5be1e5ebec7d5bd14f71427d1e84f3dd0314c0f7b2291e5b200ac8c7c3b92560405160405180910390a45b505b836004600085815260200190815260200160002060006101000a81548173ffffffffffffffffffffffffffffffffffffffff021916908373ffffffffffffffffffffffffffffffffffffffff16021790555050505050565b611d7c8383612393565b611d91611d87611476565b6000858585611887565b505050565b600080611da284611b70565b9050600073ffffffffffffffffffffffffffffffffffffffff168373ffffffffffffffffffffffffffffffffffffffff1614611de457611de381848661248c565b5b600073ffffffffffffffffffffffffffffffffffffffff168173ffffffffffffffffffffffffffffffffffffffff1614611e7557611e26600085600080611bad565b6001600360008373ffffffffffffffffffffffffffffffffffffffff1673ffffffffffffffffffffffffffffffffffffffff168152602001908152602001600020600082825403925050819055505b600073ffffffffffffffffffffffffffffffffffffffff168573ffffffffffffffffffffffffffffffffffffffff1614611ef8576001600360008773ffffffffffffffffffffffffffffffffffffffff1673ffffffffffffffffffffffffffffffffffffffff168152602001908152602001600020600082825401925050819055505b846002600086815260200190815260200160002060006101000a81548173ffffffffffffffffffffffffffffffffffffffff021916908373ffffffffffffffffffffffffffffffffffffffff160217905550838573ffffffffffffffffffffffffffffffffffffffff168273ffffffffffffffffffffffffffffffffffffffff167fddf252ad1be2c89b69c2b068fc378daa952ba7f163c4a11628f55a4df523b3ef60405160405180910390a4809150509392505050565b6008805490506009600083815260200190815260200160002081905550600881908060018154018082558091505060019003906000526020600020016000909190919091505550565b600061200483610e3f565b90506000600760008481526020019081526020016000205490506000600660008673ffffffffffffffffffffffffffffffffffffffff1673ffffffffffffffffffffffffffffffffffffffff16815260200190815260200160002090508282146120b05760008160008581526020019081526020016000205490508082600085815260200190815260200160002081905550826007600083815260200190815260200160002081905550505b6007600085815260200190815260200160002060009055806000848152602001908152602001600020600090555050505050565b600060016008805490506120f8919061369e565b905060006009600084815260200190815260200160002054905060006008838154811061212857612127612f25565b5b90600052602060002001549050806008838154811061214a57612149612f25565b5b906000526020600020018190555081600960008381526020019081526020016000208190555060096000858152602001908152602001600020600090556008805480612199576121986136d2565b5b6001900381819060005260206000200160009055905550505050565b600060016121c284610e3f565b6121cc919061369e565b905081600660008573ffffffffffffffffffffffffffffffffffffffff1673ffffffffffffffffffffffffffffffffffffffff168152602001908152602001600020600083815260200190815260200160002081905550806007600084815260200190815260200160002081905550505050565b600080600090507a184f03e93ff9f4daa797ed6e38ed64bf6a1f010000000000000000831061229e577a184f03e93ff9f4daa797ed6e38ed64bf6a1f010000000000000000838161229457612293613350565b5b0492506040810190505b6d04ee2d6d415b85acef810000000083106122db576d04ee2d6d415b85acef810000000083816122d1576122d0613350565b5b0492506020810190505b662386f26fc10000831061230a57662386f26fc100008381612300576122ff613350565b5b0492506010810190505b6305f5e1008310612333576305f5e100838161232957612328613350565b5b0492506008810190505b612710831061235857612710838161234e5761234d613350565b5b0492506004810190505b6064831061237b576064838161237157612370613350565b5b0492506002810190505b600a831061238a576001810190505b80915050919050565b600073ffffffffffffffffffffffffffffffffffffffff168273ffffffffffffffffffffffffffffffffffffffff16036124055760006040517f64a0ae920000000000000000000000000000000000000000000000000000000081526004016123fc9190612836565b60405180910390fd5b6000612413838360006114ae565b9050600073ffffffffffffffffffffffffffffffffffffffff168173ffffffffffffffffffffffffffffffffffffffff16146124875760006040517f73c6ac6e00000000000000000000000000000000000000000000000000000000815260040161247e9190612836565b60405180910390fd5b505050565b612497838383612550565b61254b57600073ffffffffffffffffffffffffffffffffffffffff168373ffffffffffffffffffffffffffffffffffffffff160361250c57806040517f7e27328900000000000000000000000000000000000000000000000000000000815260040161250391906128cc565b60405180910390fd5b81816040517f177e802f000000000000000000000000000000000000000000000000000000008152600401612542929190612efc565b60405180910390fd5b505050565b60008073ffffffffffffffffffffffffffffffffffffffff168373ffffffffffffffffffffffffffffffffffffffff161415801561260857508273ffffffffffffffffffffffffffffffffffffffff168473ffffffffffffffffffffffffffffffffffffffff1614806125c957506125c884846111b5565b5b8061260757508273ffffffffffffffffffffffffffffffffffffffff166125ef83611439565b73ffffffffffffffffffffffffffffffffffffffff16145b5b90509392505050565b6000604051905090565b600080fd5b600080fd5b60007fffffffff0000000000000000000000000000000000000000000000000000000082169050919050565b61265a81612625565b811461266557600080fd5b50565b60008135905061267781612651565b92915050565b6000602082840312156126935761269261261b565b5b60006126a184828501612668565b91505092915050565b60008115159050919050565b6126bf816126aa565b82525050565b60006020820190506126da60008301846126b6565b92915050565b600081519050919050565b600082825260208201905092915050565b60005b8381101561271a5780820151818401526020810190506126ff565b60008484015250505050565b6000601f19601f8301169050919050565b6000612742826126e0565b61274c81856126eb565b935061275c8185602086016126fc565b61276581612726565b840191505092915050565b6000602082019050818103600083015261278a8184612737565b905092915050565b6000819050919050565b6127a581612792565b81146127b057600080fd5b50565b6000813590506127c28161279c565b92915050565b6000602082840312156127de576127dd61261b565b5b60006127ec848285016127b3565b91505092915050565b600073ffffffffffffffffffffffffffffffffffffffff82169050919050565b6000612820826127f5565b9050919050565b61283081612815565b82525050565b600060208201905061284b6000830184612827565b92915050565b61285a81612815565b811461286557600080fd5b50565b60008135905061287781612851565b92915050565b600080604083850312156128945761289361261b565b5b60006128a285828601612868565b92505060206128b3858286016127b3565b9150509250929050565b6128c681612792565b82525050565b60006020820190506128e160008301846128bd565b92915050565b600080600060608486031215612900576128ff61261b565b5b600061290e86828701612868565b935050602061291f86828701612868565b9250506040612930868287016127b3565b9150509250925092565b6000602082840312156129505761294f61261b565b5b600061295e84828501612868565b91505092915050565b600080fd5b600080fd5b7f4e487b7100000000000000000000000000000000000000000000000000000000600052604160045260246000fd5b6129a982612726565b810181811067ffffffffffffffff821117156129c8576129c7612971565b5b80604052505050565b60006129db612611565b90506129e782826129a0565b919050565b600067ffffffffffffffff821115612a0757612a06612971565b5b612a1082612726565b9050602081019050919050565b82818337600083830152505050565b6000612a3f612a3a846129ec565b6129d1565b905082815260208101848484011115612a5b57612a5a61296c565b5b612a66848285612a1d565b509392505050565b600082601f830112612a8357612a82612967565b5b8135612a93848260208601612a2c565b91505092915050565b600060208284031215612ab257612ab161261b565b5b600082013567ffffffffffffffff811115612ad057612acf612620565b5b612adc84828501612a6e565b91505092915050565b612aee816126aa565b8114612af957600080fd5b50565b600081359050612b0b81612ae5565b92915050565b60008060408385031215612b2857612b2761261b565b5b6000612b3685828601612868565b9250506020612b4785828601612afc565b9150509250929050565b600067ffffffffffffffff821115612b6c57612b6b612971565b5b612b7582612726565b9050602081019050919050565b6000612b95612b9084612b51565b6129d1565b905082815260208101848484011115612bb157612bb061296c565b5b612bbc848285612a1d565b509392505050565b600082601f830112612bd957612bd8612967565b5b8135612be9848260208601612b82565b91505092915050565b60008060008060808587031215612c0c57612c0b61261b565b5b6000612c1a87828801612868565b9450506020612c2b87828801612868565b9350506040612c3c878288016127b3565b925050606085013567ffffffffffffffff811115612c5d57612c5c612620565b5b612c6987828801612bc4565b91505092959194509250565b60008060408385031215612c8c57612c8b61261b565b5b6000612c9a85828601612868565b9250506020612cab85828601612868565b9150509250929050565b7f4e487b7100000000000000000000000000000000000000000000000000000000600052602260045260246000fd5b60006002820490506001821680612cfc57607f821691505b602082108103612d0f57612d0e612cb5565b5b50919050565b7f4d696e74206973206e6f74206f70656e00000000000000000000000000000000600082015250565b6000612d4b6010836126eb565b9150612d5682612d15565b602082019050919050565b60006020820190508181036000830152612d7a81612d3e565b9050919050565b7f536f6c64206f7574000000000000000000000000000000000000000000000000600082015250565b6000612db76008836126eb565b9150612dc282612d81565b602082019050919050565b60006020820190508181036000830152612de681612daa565b9050919050565b7f416c7265616479206d696e746564000000000000000000000000000000000000600082015250565b6000612e23600e836126eb565b9150612e2e82612ded565b602082019050919050565b60006020820190508181036000830152612e5281612e16565b9050919050565b7f4e6f7420656e6f75676820455448000000000000000000000000000000000000600082015250565b6000612e8f600e836126eb565b9150612e9a82612e59565b602082019050919050565b60006020820190508181036000830152612ebe81612e82565b9050919050565b6000606082019050612eda6000830186612827565b612ee760208301856128bd565b612ef46040830184612827565b949350505050565b6000604082019050612f116000830185612827565b612f1e60208301846128bd565b9392505050565b7f4e487b7100000000000000000000000000000000000000000000000000000000600052603260045260246000fd5b60008190508160005260206000209050919050565b60006020601f8301049050919050565b600082821b905092915050565b600060088302612fb67fffffffffffffffffffffffffffffffffffffffffffffffffffffffffffffffff82612f79565b612fc08683612f79565b95508019841693508086168417925050509392505050565b6000819050919050565b6000612ffd612ff8612ff384612792565b612fd8565b612792565b9050919050565b6000819050919050565b61301783612fe2565b61302b61302382613004565b848454612f86565b825550505050565b600090565b613040613033565b61304b81848461300e565b505050565b5b8181101561306f57613064600082613038565b600181019050613051565b5050565b601f8211156130b45761308581612f54565b61308e84612f69565b8101602085101561309d578190505b6130b16130a985612f69565b830182613050565b50505b505050565b600082821c905092915050565b60006130d7600019846008026130b9565b1980831691505092915050565b60006130f083836130c6565b9150826002028217905092915050565b613109826126e0565b67ffffffffffffffff81111561312257613121612971565b5b61312c8254612ce4565b613137828285613073565b600060209050601f83116001811461316a5760008415613158578287015190505b61316285826130e4565b8655506131ca565b601f19841661317886612f54565b60005b828110156131a05784890151825560018201915060208501945060208101905061317b565b868310156131bd57848901516131b9601f8916826130c6565b8355505b6001600288020188555050505b505050505050565b7f416c72656164792072657665616c656400000000000000000000000000000000600082015250565b60006132086010836126eb565b9150613213826131d2565b602082019050919050565b60006020820190508181036000830152613237816131fb565b9050919050565b7f4d696e74206e6f742066696e6973686564000000000000000000000000000000600082015250565b60006132746011836126eb565b915061327f8261323e565b602082019050919050565b600060208201905081810360008301526132a381613267565b9050919050565b6000819050919050565b6132c56132c082612792565b6132aa565b82525050565b60008160601b9050919050565b60006132e3826132cb565b9050919050565b60006132f5826132d8565b9050919050565b61330d61330882612815565b6132ea565b82525050565b600061331f82866132b4565b60208201915061332f82856132b4565b60208201915061333f82846132fc565b601482019150819050949350505050565b7f4e487b7100000000000000000000000000000000000000000000000000000000600052601260045260246000fd5b600061338a82612792565b915061339583612792565b9250826133a5576133a4613350565b5b828206905092915050565b600081905092915050565b600081546133c881612ce4565b6133d281866133b0565b945060018216600081146133ed576001811461340257613435565b60ff1983168652811515820286019350613435565b61340b85612f54565b60005b8381101561342d5781548189015260018201915060208101905061340e565b838801955050505b50505092915050565b7f68696464656e2e6a736f6e000000000000000000000000000000000000000000600082015250565b6000613474600b836133b0565b915061347f8261343e565b600b82019050919050565b600061349682846133bb565b91506134a182613467565b915081905092915050565b7f4e487b7100000000000000000000000000000000000000000000000000000000600052601160045260246000fd5b60006134e682612792565b91506134f183612792565b9250828201905080821115613509576135086134ac565b5b92915050565b600061351a826126e0565b61352481856133b0565b93506135348185602086016126fc565b80840191505092915050565b7f2e6a736f6e000000000000000000000000000000000000000000000000000000600082015250565b60006135766005836133b0565b915061358182613540565b600582019050919050565b600061359882856133bb565b91506135a4828461350f565b91506135af82613569565b91508190509392505050565b600081519050919050565b600082825260208201905092915050565b60006135e2826135bb565b6135ec81856135c6565b93506135fc8185602086016126fc565b61360581612726565b840191505092915050565b60006080820190506136256000830187612827565b6136326020830186612827565b61363f60408301856128bd565b818103606083015261365181846135d7565b905095945050505050565b60008151905061366b81612651565b92915050565b6000602082840312156136875761368661261b565b5b60006136958482850161365c565b91505092915050565b60006136a982612792565b91506136b483612792565b92508282039050818111156136cc576136cb6134ac565b5b92915050565b7f4e487b7100000000000000000000000000000000000000000000000000000000600052603160045260246000fdfea26469706673582212206976dbdb2e43340aeac3e6cc22a94fbaaba90adb9a88e4389a1e73e3840b587964736f6c63430008180033",
  "linkReferences": {},
  "deployedLinkReferences": {}
}