{
  "_format": "hh-sol-artifact-1",
  "contractName": "TokenStaking",
  "sourceName": "contracts/AddStaking.sol",
  "abi": [
    {
      "inputs": [
        {
          "internalType": "address",
          "name": "_stakingToken",
          "type": "address"
        }
      ],
      "stateMutability": "nonpayable",
      "type": "constructor"
    },
    {
      "inputs": [],
      "name": "SECONDS_PER_DAY",
      "outputs": [
        {
          "internalType": "uint256",
          "name": "",
          "type": "uint256"
        }
      ],
      "stateMutability": "view",
      "type": "function"
    },
    {
      "inputs": [],
      "name": "claimRewards",
      "outputs": [],
      "stateMutability": "nonpayable",
      "type": "function"
    },
    {
      "inputs": [
        {
          "internalType": "address",
          "name": "_user",
          "type": "address"
        }
      ],
      "name": "getStakeInfo",
      "outputs": [
        {
          "internalType": "uint256",
          "name": "stakedAmount",
          "type": "uint256"
        },
        {
          "internalType": "uint256",
          "name": "pendingRewards",
          "type": "uint256"
        }
      ],
      "stateMutability": "view",
      "type": "function"
    },
    {
      "inputs": [],
      "name": "rewardRate",
      "outputs": [
        {
          "internalType": "uint256",
          "name": "",
          "type": "uint256"
        }
      ],
      "stateMutability": "view",
      "type": "function"
    },
    {
      "inputs": [
        {
          "internalType": "address",
          "name": "",
          "type": "address"
        }
      ],
      "name": "rewards",
      "outputs": [
        {
          "internalType": "uint256",
          "name": "",
          "type": "uint256"
        }
      ],
      "stateMutability": "view",
      "type": "function"
    },
    {
      "inputs": [
        {
          "internalType": "uint256",
          "name": "_amount",
          "type": "uint256"
        }
      ],
      "name": "stake",
      "outputs": [],
      "stateMutability": "nonpayable",
      "type": "function"
    },
    {
      "inputs": [
        {
          "internalType": "address",
          "name": "",
          "type": "address"
        }
      ],
      "name": "stakes",
      "outputs": [
        {
          "internalType": "uint256",
          "name": "amount",
          "type": "uint256"
        },
        {
          "internalType": "uint256",
          "name": "timestamp",
          "type": "uint256"
        },
        {
          "internalType": "uint256",
          "name": "rewardDebt",
          "type": "uint256"
        }
      ],
      "stateMutability": "view",
      "type": "function"
    },
    {
      "inputs": [],
      "name": "stakingToken",
      "outputs": [
        {
          "internalType": "contract IERC20",
          "name": "",
          "type": "address"
        }
      ],
      "stateMutability": "view",
      "type": "function"
    },
    {
      "inputs": [
        {
          "internalType": "uint256",
          "name": "_amount",
          "type": "uint256"
        }
      ],
      "name": "unstake",
      "outputs": [],
      "stateMutability": "nonpayable",
      "type": "function"
    }
  ],
  "bytecode": "0x608060405260646003553480156200001657600080fd5b50604051620010c5380380620010c583398181016040528101906200003c9190620000ed565b806000806101000a81548173ffffffffffffffffffffffffffffffffffffffff021916908373ffffffffffffffffffffffffffffffffffffffff160217905550506200011f565b600080fd5b600073ffffffffffffffffffffffffffffffffffffffff82169050919050565b6000620000b58262000088565b9050919050565b620000c781620000a8565b8114620000d357600080fd5b50565b600081519050620000e781620000bc565b92915050565b60006020828403121562000106576200010562000083565b5b60006200011684828501620000d6565b91505092915050565b610f96806200012f6000396000f3fe608060405234801561001057600080fd5b50600436106100935760003560e01c806372f702f31161006657806372f702f31461012057806374f0314f1461013e5780637b0a47ee1461015c578063a694fc3a1461017a578063c34531531461019657610093565b80630700037d1461009857806316934fc4146100c85780632e17de78146100fa578063372500ab14610116575b600080fd5b6100b260048036038101906100ad9190610a6a565b6101c7565b6040516100bf9190610ab0565b60405180910390f35b6100e260048036038101906100dd9190610a6a565b6101df565b6040516100f193929190610acb565b60405180910390f35b610114600480360381019061010f9190610b2e565b610209565b005b61011e610392565b005b610128610509565b6040516101359190610bba565b60405180910390f35b61014661052d565b6040516101539190610ab0565b60405180910390f35b610164610534565b6040516101719190610ab0565b60405180910390f35b610194600480360381019061018f9190610b2e565b61053a565b005b6101b060048036038101906101ab9190610a6a565b6106ca565b6040516101be929190610bd5565b60405180910390f35b60026020528060005260406000206000915090505481565b60016020528060005260406000206000915090508060000154908060010154908060020154905083565b80600160003373ffffffffffffffffffffffffffffffffffffffff1673ffffffffffffffffffffffffffffffffffffffff16815260200190815260200160002060000154101561028e576040517f08c379a000000000000000000000000000000000000000000000000000000000815260040161028590610c5b565b60405180910390fd5b61029733610847565b80600160003373ffffffffffffffffffffffffffffffffffffffff1673ffffffffffffffffffffffffffffffffffffffff16815260200190815260200160002060000160008282546102e99190610caa565b9250508190555060008054906101000a900473ffffffffffffffffffffffffffffffffffffffff1673ffffffffffffffffffffffffffffffffffffffff1663a9059cbb33836040518363ffffffff1660e01b815260040161034b929190610ced565b6020604051808303816000875af115801561036a573d6000803e3d6000fd5b505050506040513d601f19601f8201168201806040525081019061038e9190610d4e565b5050565b61039b33610847565b6000600260003373ffffffffffffffffffffffffffffffffffffffff1673ffffffffffffffffffffffffffffffffffffffff16815260200190815260200160002054905060008111610422576040517f08c379a000000000000000000000000000000000000000000000000000000000815260040161041990610dc7565b60405180910390fd5b6000600260003373ffffffffffffffffffffffffffffffffffffffff1673ffffffffffffffffffffffffffffffffffffffff1681526020019081526020016000208190555060008054906101000a900473ffffffffffffffffffffffffffffffffffffffff1673ffffffffffffffffffffffffffffffffffffffff1663a9059cbb33836040518363ffffffff1660e01b81526004016104c2929190610ced565b6020604051808303816000875af11580156104e1573d6000803e3d6000fd5b505050506040513d601f19601f820116820180604052508101906105059190610d4e565b5050565b60008054906101000a900473ffffffffffffffffffffffffffffffffffffffff1681565b6201518081565b60035481565b6000811161057d576040517f08c379a000000000000000000000000000000000000000000000000000000000815260040161057490610e33565b60405180910390fd5b61058633610847565b60008054906101000a900473ffffffffffffffffffffffffffffffffffffffff1673ffffffffffffffffffffffffffffffffffffffff166323b872dd3330846040518463ffffffff1660e01b81526004016105e393929190610e53565b6020604051808303816000875af1158015610602573d6000803e3d6000fd5b505050506040513d601f19601f820116820180604052508101906106269190610d4e565b5080600160003373ffffffffffffffffffffffffffffffffffffffff1673ffffffffffffffffffffffffffffffffffffffff16815260200190815260200160002060000160008282546106799190610e8a565b9250508190555042600160003373ffffffffffffffffffffffffffffffffffffffff1673ffffffffffffffffffffffffffffffffffffffff1681526020019081526020016000206001018190555050565b600080600160008473ffffffffffffffffffffffffffffffffffffffff1673ffffffffffffffffffffffffffffffffffffffff16815260200190815260200160002060000154915060008211156107ff576000600160008573ffffffffffffffffffffffffffffffffffffffff1673ffffffffffffffffffffffffffffffffffffffff168152602001908152602001600020600101544261076b9190610caa565b90506000612710600354856107809190610ebe565b61078a9190610f2f565b9050600062015180838361079e9190610ebe565b6107a89190610f2f565b905080600260008873ffffffffffffffffffffffffffffffffffffffff1673ffffffffffffffffffffffffffffffffffffffff168152602001908152602001600020546107f59190610e8a565b9350505050610842565b600260008473ffffffffffffffffffffffffffffffffffffffff1673ffffffffffffffffffffffffffffffffffffffff1681526020019081526020016000205490505b915091565b6000600160008373ffffffffffffffffffffffffffffffffffffffff1673ffffffffffffffffffffffffffffffffffffffff168152602001908152602001600020600001541115610a04576000600160008373ffffffffffffffffffffffffffffffffffffffff1673ffffffffffffffffffffffffffffffffffffffff16815260200190815260200160002060010154426108e29190610caa565b90506000612710600354600160008673ffffffffffffffffffffffffffffffffffffffff1673ffffffffffffffffffffffffffffffffffffffff168152602001908152602001600020600001546109399190610ebe565b6109439190610f2f565b905060006201518083836109579190610ebe565b6109619190610f2f565b905080600260008673ffffffffffffffffffffffffffffffffffffffff1673ffffffffffffffffffffffffffffffffffffffff16815260200190815260200160002060008282546109b29190610e8a565b9250508190555042600160008673ffffffffffffffffffffffffffffffffffffffff1673ffffffffffffffffffffffffffffffffffffffff168152602001908152602001600020600101819055505050505b50565b600080fd5b600073ffffffffffffffffffffffffffffffffffffffff82169050919050565b6000610a3782610a0c565b9050919050565b610a4781610a2c565b8114610a5257600080fd5b50565b600081359050610a6481610a3e565b92915050565b600060208284031215610a8057610a7f610a07565b5b6000610a8e84828501610a55565b91505092915050565b6000819050919050565b610aaa81610a97565b82525050565b6000602082019050610ac56000830184610aa1565b92915050565b6000606082019050610ae06000830186610aa1565b610aed6020830185610aa1565b610afa6040830184610aa1565b949350505050565b610b0b81610a97565b8114610b1657600080fd5b50565b600081359050610b2881610b02565b92915050565b600060208284031215610b4457610b43610a07565b5b6000610b5284828501610b19565b91505092915050565b6000819050919050565b6000610b80610b7b610b7684610a0c565b610b5b565b610a0c565b9050919050565b6000610b9282610b65565b9050919050565b6000610ba482610b87565b9050919050565b610bb481610b99565b82525050565b6000602082019050610bcf6000830184610bab565b92915050565b6000604082019050610bea6000830185610aa1565b610bf76020830184610aa1565b9392505050565b600082825260208201905092915050565b7f496e73756666696369656e74207374616b656420616d6f756e74000000000000600082015250565b6000610c45601a83610bfe565b9150610c5082610c0f565b602082019050919050565b60006020820190508181036000830152610c7481610c38565b9050919050565b7f4e487b7100000000000000000000000000000000000000000000000000000000600052601160045260246000fd5b6000610cb582610a97565b9150610cc083610a97565b9250828203905081811115610cd857610cd7610c7b565b5b92915050565b610ce781610a2c565b82525050565b6000604082019050610d026000830185610cde565b610d0f6020830184610aa1565b9392505050565b60008115159050919050565b610d2b81610d16565b8114610d3657600080fd5b50565b600081519050610d4881610d22565b92915050565b600060208284031215610d6457610d63610a07565b5b6000610d7284828501610d39565b91505092915050565b7f4e6f207265776172647320746f20636c61696d00000000000000000000000000600082015250565b6000610db1601383610bfe565b9150610dbc82610d7b565b602082019050919050565b60006020820190508181036000830152610de081610da4565b9050919050565b7f416d6f756e74206d7573742062652067726561746572207468616e2030000000600082015250565b6000610e1d601d83610bfe565b9150610e2882610de7565b602082019050919050565b60006020820190508181036000830152610e4c81610e10565b9050919050565b6000606082019050610e686000830186610cde565b610e756020830185610cde565b610e826040830184610aa1565b949350505050565b6000610e9582610a97565b9150610ea083610a97565b9250828201905080821115610eb857610eb7610c7b565b5b92915050565b6000610ec982610a97565b9150610ed483610a97565b9250828202610ee281610a97565b91508282048414831517610ef957610ef8610c7b565b5b5092915050565b7f4e487b7100000000000000000000000000000000000000000000000000000000600052601260045260246000fd5b6000610f3a82610a97565b9150610f4583610a97565b925082610f5557610f54610f00565b5b82820490509291505056fea2646970667358221220c79a4e3b77c6b7fbdc83939b8b13c90a122d84d6336b22e1795cd05d3144300964736f6c63430008180033",
  "linkReferences": {},
  "deployedLinkReferences": {}
}